:1000000021C03BC03AC039C038C03AC236C035C042
:10001000DDC133C032C031C030C02FC05EC22DC080
:100020002CC02BC02AC005A84CCDB2D44EB938364E
:10003000A9020C50B9918688083CA6AAAA2ABE003B
:100040000000803F11241FBECFE5D4E0DEBFCDBF4E
:1000500010E0A0E6B0E0E0E2F4E102C005900D920D
:10006000A439B107D9F720E0A4E9B0E001C01D929E
:10007000AC3BB207E1F7FCD0D1C9C2CF10BC87E6D8
:1000800089B98AB188618AB980B58E6880BD88E6F1
:1000900090E09093B9008093B80008955D9BFECFE7
:1000A0008CB90895FBDF80E090E0089580917600A0
:1000B0008FBD81E18EBD84E089BF80919C009091CD
:1000C0009D0097BD86BD86E087BB089586B1876891
:1000D00086B93E9A0895369A3699FECF84B195B185
:1000E00008952F923F924F925F926F927F928F92DC
:1000F0009F92AF92BF92CF92DF92EF92FF920F93B7
:100100001F93CF93DF9300D000D000D0CDB7DEB7E0
:100110004091660050916700052E000C660B770B2E
:100120000091A4001091A5002091A6003091A70095
:10013000401751076207730709F481C07C01A09042
:10014000A200B090A3001501220C331CB1018091D4
:100150009A0090919B00C7D54C0190939B0080938F
:100160009A001A141B040CF042C08C011E821D82DE
:10017000250121E0421A5108052C000C6608770879
:10018000C701FF0CAA0BBB0B89839A83AB83BC838B
:10019000AD81BE81BD01BB0F880B990B43D22BED06
:1001A0003FE049E450E4CAD26B017C01C301B201D3
:1001B00039D29B01AC01C701B60199D122D36B01A1
:1001C0007C0169817A818B819C812CD2A701960167
:1001D000B5D2F5D1F801619371938F012D813E81E4
:1001E0002F5F3F4F3E832D83A216B30689F62091E1
:1001F000A0003091A1008091B0009091B1008217D1
:100200009307CCF31A141B0474F4F401A091980022
:10021000B0919900820C931C819191918D939D9343
:10022000E815F905C9F7B092A100A092A00080914D
:10023000A4009091A5009093670080936600269695
:100240000FB6F894DEBF0FBECDBFDF91CF911F91E7
:100250000F91FF90EF90DF90CF90BF90AF909F9065
:100260008F907F906F905F904F903F902F90089568
:1002700062E070E088EC90E0FBD390939B00809369
:100280009A0062E070E088EC90E0F2D390939900DD
:10029000809398001BDF0ADFF1DE78940F2E442450
:1002A0004A94F3E05F2E612C712CF02D0F2EF9E7AC
:1002B000EF2EF0E0FF2EF02D0F2EF8ECCF2ED12CEC
:1002C000F02D09E810E007DF9C0140E050E02093AA
:1002D000A4003093A5004093A6005093A700AEE978
:1002E000B7E08ED3A30192016FD32E5C3F4F3093C2
:1002F0009700209396003F932F93FF92EF92C2D5E1
:1003000060919600709197000F900F900F900F9052
:10031000683C710594F0072E000C880B990B82D174
:100320009B01AC0160E070E48CE197E4E0D047D140
:10033000709378006093770004C0D0927800C092E8
:100340007700809178008F93809177008F931F932F
:100350000F9398D5C0917700D0917800D093A300E7
:10036000C093A2006091960070919700072E000C38
:10037000880B990B57D19B01AC0160E074E284E7D4
:100380009BE4B5D04B015C01CC0FDD1FCC0FDD1F12
:10039000BE01DD0F880B990B45D19B01AC01C50156
:1003A000B401A5D00CD14B015C0160939C0070930B
:1003B0009D0080939E0090939F00CB0192DE97BC9E
:1003C00086BC0F900F900F900F907DCF1F920F92D1
:1003D0000FB60F9211242F933F938F939F93EF9318
:1003E000FF938091940090919500019759F490911A
:1003F000760080EA8927809376008FBD1092950061
:10040000109294002091B0003091B1008091A00032
:100410009091A100281739076CF01092B10010924A
:10042000B000809194009091950001969093950072
:1004300080939400E091B000F091B100EE0FFF1FA7
:100440008091980090919900E80FF91F8081918127
:1004500099BD88BD9BBD8ABD8091B0009091B100CF
:1004600001969093B1008093B000FF91EF919F911E
:100470008F913F912F910F900FBE0F901F90189565
:100480001F920F920FB60F9211248F939F93EF93A9
:10049000FF93E091B000F091B100EE0FFF1F80914B
:1004A000980090919900E80FF91F8081918199BD82
:1004B00088BD9BBD8ABD8091B0009091B10001962E
:1004C0009093B1008093B000FF91EF919F918F9135
:1004D0000F900FBE0F901F9018951F920F920FB69E
:1004E0000F9211240F900FBE0F901F9018950CD0F3
:1004F000EBC0E3D040F0DAD030F021F45F3F19F0E8
:10050000CCC0511115C1CFC0F0D098F39923C9F3D5
:100510005523B1F3951B550BBB27AA276217730709
:10052000840738F09F5F5F4F220F331F441FAA1FBD
:10053000A9F333D00E2E3AF0E0E830D0915050407D
:10054000E695001CCAF729D0FE2F27D0660F771F2B
:10055000881FBB1F261737074807AB07B0E809F00D
:10056000BB0B802DBF01FF2793585F4F2AF09E3FA2
:10057000510568F092C0DCC05F3FECF3983EDCF3BD
:10058000869577956795B795F7959F5FC9F7880F1B
:10059000911D9695879597F90895E1E0660F771F6D
:1005A000881FBB1F621773078407BA0720F0621BFE
:1005B000730B840BBA0BEE1F88F7E095089504D0F7
:1005C0006894B111B5C0089598D088F09F5790F005
:1005D000B92F9927B751A0F0D1F0660F771F881F68
:1005E000991F1AF0BA95C9F712C0B13081F09FD0A7
:1005F000B1E008959CC0672F782F8827B85F39F045
:10060000B93FCCF3869577956795B395D9F73EF4C6
:1006100090958095709561957F4F8F4F9F4F08956E
:10062000E89409C097FB3EF490958095709561958C
:100630007F4F8F4F9F4F9923A9F0F92F96E9BB2742
:100640009395F695879577956795B795F111F8CFBE
:10065000FAF4BB0F11F460FF1BC06F5F7F4F8F4F29
:100660009F4F16C0882311F096E911C0772321F01F
:100670009EE8872F762F05C0662371F096E8862FB7
:1006800070E060E02AF09A95660F771F881FDAF70E
:10069000880F9695879597F9089597F99F6780E851
:1006A00070E060E008959FEF80EC089500240A94C4
:1006B0001616170618060906089500240A9412163D
:1006C0001306140605060895092E0394000C11F470
:1006D000882352F0BB0F40F4BF2B11F460FF04C01D
:1006E0006F5F7F4F8F4F9F4F089557FD9058440F76
:1006F000551F59F05F3F71F04795880F97FB991F81
:1007000061F09F3F79F0879508951216130614063D
:10071000551FF2CF4695F1DF08C0161617061806CA
:10072000991FF1CF86957105610508940895E894A5
:10073000BB2766277727CB0197F908950BD0C4CF45
:10074000B5DF28F0BADF18F0952309F0A6CFABCFBC
:100750001124EECFCADFA0F3959FD1F3950F50E09F
:10076000551F629FF001729FBB27F00DB11D639F63
:10077000AA27F00DB11DAA1F649F6627B00DA11D09
:10078000661F829F2227B00DA11D621F739FB00DAF
:10079000A11D621F839FA00D611D221F749F33271F
:1007A000A00D611D231F849F600D211D822F762FB8
:1007B0006A2F11249F5750408AF0E1F088234AF0B5
:1007C000EE0FFF1FBB1F661F771F881F9150504001
:1007D000A9F79E3F510570F060CFAACF5F3FECF3C1
:1007E000983EDCF3869577956795B795F795E795ED
:1007F0009F5FC1F7FE2B880F911D9695879597F9FE
:1008000008959F9305D00F9007FCEE5F28C04BCF53
:1008100074DFE8F3E894E0E0BB279F57F0F02AED9F
:100820003FE049EC06C0EE0FBB0F661F771F881F25
:1008300028F0B23A62077307840728F0B25A620BB5
:10084000730B840BE3959A9572F7803830F49A9580
:10085000BB0F661F771F881FD2F7904873C0EF93B6
:10086000E0FF06C0A2EA2AED3FE049EC5FEB15D0BD
:100870002BDF0F90039401FC9058E6E2F0E06EC08D
:1008800015DF30F01ADF20F031F49F3F11F41EF431
:100890000ACF0EF4E095E7FB00CFE92F26DF80F3C7
:1008A000BA17620773078407950718F071F49EF56D
:1008B0003ECF0EF4E0950B2EBA2FA02D0B01B901FF
:1008C00090010C01CA01A0011124FF27591B99F0C6
:1008D000593F50F4503E68F11A16F040A22F232FD2
:1008E000342F4427585FF3CF469537952795A79522
:1008F000F0405395C9F77EF41F16BA0B620B730BC9
:10090000840BBAF09150A1F0FF0FBB1F661F771F39
:10091000881FC2F70EC0BA0F621F731F841F48F4EE
:10092000879577956795B795F7959E3F08F0B3CF74
:100930009395880F08F09927EE0F9795879508955E
:100940009F3F31F0915020F4879577956795B79543
:10095000880F911D9695879597F908959F938F938A
:100960007F936F93FF93EF939B01AC01E7DEEF91D1
:10097000FF9105D02F913F914F915F91DFCEDF9393
:10098000CF931F930F93FF92EF92DF927B018C0125
:10099000689405C0DA2EEF01DDDEFE01E894A59132
:1009A0002591359145915591AEF3EF0176DFFE012A
:1009B0009701A801DA9479F7DF90EF90FF900F91FB
:1009C0001F91CF91DF910895052E97FB16F40094A7
:1009D0000FD057FD05D01ED007FC02D046F408C04A
:1009E00050954095309521953F4F4F4F5F4F08955B
:1009F00090958095709561957F4F8F4F9F4F08958B
:100A00002BD0A59F900DB49F900DA49F800D911D9C
:100A100011240895A1E21A2EAA1BBB1BFD010DC0D3
:100A2000AA1FBB1FEE1FFF1FA217B307E407F5079E
:100A300020F0A21BB30BE40BF50B661F771F881F7A
:100A4000991F1A9469F760957095809590959B0110
:100A5000AC01BD01CF010895A29FB001B39FC001B9
:100A6000A39F01D0B29F700D811D1124911D089587
:100A70000F931F93CF93DF93869F8001879F100D65
:100A8000969F100D1124C8010DD0EC01009721F0A4
:100A9000A80160E070E0EFD1CE01DF91CF911F910E
:100AA0000F9108950F931F93CF93DF938230910599
:100AB00010F482E090E0E091B400F091B50020E005
:100AC00030E0A0E0B0E0309719F14081518102811F
:100AD000138148175907C8F08417950769F41097D0
:100AE00031F012960C93129713961C9327C0009323
:100AF000B4001093B50022C02115310519F042173A
:100B0000530718F49A01BD01EF01DF01F801DBCFB3
:100B100021153105F9F0281B390B2430310580F4FB
:100B20008A819B816115710521F0FB01938382838A
:100B300004C09093B5008093B400FE01329644C087
:100B4000FE01E20FF31F8193919322503109398303
:100B500028833AC02091B2003091B300232B41F496
:100B600020916200309163003093B3002093B20073
:100B700020916000309161002115310541F42DB7BD
:100B80003EB74091640050916500241B350BE09105
:100B9000B200F091B300E217F307A0F42E1B3F0B55
:100BA0002817390778F0AC014E5F5F4F24173507DF
:100BB00048F04E0F5F1F5093B3004093B2008193F3
:100BC000919302C0E0E0F0E0CF01DF91CF911F915F
:100BD0000F910895CF93DF93009709F481C0FC0132
:100BE000329713821282A091B400B091B500109791
:100BF00081F420813181820F931F2091B2003091C6
:100C0000B3002817390751F5F093B300E093B20011
:100C100067C0ED0120E030E0CE17DF0740F44A81E5
:100C20005B819E0141155105F1F0EA01F5CFD383B7
:100C3000C28340815181840F951FC817D90759F489
:100C400088819981840F951F0296918380838A8180
:100C50009B81938382832115310529F4F093B5009C
:100C6000E093B4003DC0E901FB83EA8349915991C7
:100C7000C40FD51FEC17FD0761F480819181840FAB
:100C8000951F0296E90199838883828193819B83D2
:100C90008A83E0E0F0E012968D919C911397009783
:100CA00019F0FD01DC01F7CF8D919C9111979D0109
:100CB0002E5F3F4F820F931F2091B2003091B300FF
:100CC0002817390769F4309729F41092B50010926B
:100CD000B40002C013821282B093B300A093B2009A
:100CE000DF91CF910895A0E0B0E0E8E7F6E063C3BC
:100CF000EC01009719F4CB01D5DEB0C0FC01E60F82
:100D0000F71F9C0122503109E217F30708F4A4C031
:100D1000D9010D911C91119706171707A8F00530FE
:100D2000110508F497C0C80104978617970708F4BF
:100D300091C002501109061B170B019311936D937B
:100D40007C93CF0147DF86C05B01A01AB10A4C013A
:100D5000800E911EA091B400B091B500612C712C51
:100D6000E12CF12C109709F446C08D919C911197BC
:100D7000A815B905B1F56C0142E0C40ED11CCA1426
:100D8000DB0478F14C018A189B08640142E0C40E30
:100D9000D11C1296BC9012971396AC91B5E0CB166D
:100DA000D10440F0B282A38391828082D9016D93F5
:100DB0007C9309C00E5F1F4F800F911FF901918333
:100DC0008083EB2DFA2FE114F10431F0D701139653
:100DD000FC93EE9312973EC0F093B500E093B400FD
:100DE00039C06816790608F43C017D0112960D9011
:100DF000BC91A02DB7CF8091B2009091B30088161E
:100E00009906E1F466167706C8F480916000909127
:100E10006100009741F48DB79EB7409164005091F6
:100E20006500841B950BE817F907B0F4F093B30045
:100E3000E093B200F901718360830CC0CB0132DE14
:100E40007C01009749F0A801BE010CD0CE01C2DEA2
:100E5000C70104C0CE0102C080E090E0CDB7DEB78C
:100E6000EEE0C5C2FB01DC0102C001900D924150D1
:100E70005040D8F70895DC0101C06D9341505040B7
:100E8000E0F70895A0E0B0E0E7E4F7E0A0C2AE012B
:100E90004B5F5F4FFA0161917191AF018091B80092
:100EA0009091B90002D0E2E0AEC2ABE0B0E0EAE57A
:100EB000F7E07DC26C017B018A01FC01178216827A
:100EC000838181FFBFC1CE0101963C01F601938170
:100ED000F70193FD859193FF81917F01882309F4A8
:100EE000ADC1853239F493FD859193FF81917F01E6
:100EF000853221F4B60190E0C0D1E8CF912C212CAD
:100F0000312CFFE1F315D8F08B3279F038F48032D0
:100F100079F08332A1F4232D20611DC08D3261F060
:100F2000803369F4232D216016C0832D8260382E12
:100F3000E32DE4603E2E2AC0F32DF8601DC037FC7F
:100F40002DC020ED280F2A3040F08E32B9F436FC47
:100F500075C1232D2064322E19C036FE06C08AE0EA
:100F6000989E200D1124922E11C0EAE02E9E200D95
:100F70001124222EF32DF0623F2E08C08C3621F46E
:100F8000832D8068382E02C0883641F4F70193FD26
:100F9000859193FF81917F018111B3CF982F9F7D20
:100FA0009554933028F40C5F1F4F9FE399830DC035
:100FB000833631F0833771F0833509F055C020C096
:100FC000F801808189830E5F1F4F88248394912CC0
:100FD000530112C02801F2E04F0E511CF801A0800D
:100FE000B18036FE03C0692D70E002C06FEF7FEF65
:100FF000C50138D14C018201F32DFF773F2E15C07A
:10100000280122E0420E511CF801A080B18036FE7A
:1010100003C0692D70E002C06FEF7FEFC50117D1EB
:101020004C01F32DF0683F2E820133FC19C0822D54
:1010300090E088169906A0F4B60180E290E01DD1F8
:101040002A94F5CFF50137FC859137FE81915F0138
:10105000B60190E012D121102A9421E0821A910861
:101060008114910479F7E1C0843611F0893639F59D
:10107000F80137FE07C060817181828193810C5F26
:101080001F4F08C060817181072E000C880B990BDF
:101090000E5F1F4FF32DFF763F2E97FF09C09095EF
:1010A0008095709561957F4F8F4F9F4FF0683F2ED1
:1010B0002AE030E0A3011DD1882E861844C0853770
:1010C00031F4232D2F7EB22E2AE030E025C0932D5F
:1010D000997FB92E8F36C1F018F4883579F0AEC0FB
:1010E000803719F0883721F0A9C0E92FE061BE2EC2
:1010F000B4FE0DC0FB2DF460BF2E09C034FE0AC043
:10110000292F2660B22E06C028E030E005C020E17D
:1011100030E002C020E132E0F801B7FE07C0608194
:101120007181828193810C5F1F4F06C06081718144
:1011300080E090E00E5F1F4FA301DBD0882E861861
:10114000FB2DFF773F2E36FE0DC0232D2E7FA22EC6
:10115000891458F434FE0BC032FC09C0832D8E7EF6
:10116000A82E05C0B82CA32C03C0B82C01C0B92CE4
:10117000A4FE0FC0FE01E80DF11D8081803321F433
:101180009A2D997EA92E09C0A2FE06C0B394B394ED
:1011900004C08A2D867809F0B394A3FC10C0A0FE89
:1011A00006C0B21480F4280C922C9B180DC0B21407
:1011B00058F4B60180E290E060D0B394F8CFB21456
:1011C00018F42B1802C0982C212CA4FE0FC0B601D5
:1011D00080E390E052D0A2FE16C0A1FC03C088E7D5
:1011E00090E002C088E590E0B6010CC08A2D8678B8
:1011F00051F0A1FE02C08BE201C080E2A7FC8DE2AB
:10120000B60190E03AD0891430F4B60180E390E062
:1012100034D09A94F8CF8A94F301E80DF11D8081BF
:10122000B60190E02AD08110F6CF222009F44ECEEC
:10123000B60180E290E021D02A94F7CFF6018681B2
:10124000978102C08FEF9FEF2B96E2E1CCC0FC01AB
:101250000590615070400110D8F7809590958E0FE1
:101260009F1F0895FC016150704001900110D8F754
:10127000809590958E0F9F1F08950F931F93CF9386
:10128000DF93FB01238121FD03C08FEF9FEF2CC073
:1012900022FF16C0468157812481358142175307AA
:1012A00044F4A081B1819D012F5F3F4F31832083A2
:1012B0008C93268137812F5F3F4F3783268314C05D
:1012C0008B01EC01FB010084F185E02D0995892B50
:1012D000E1F6D80116968D919C9117970196179675
:1012E0009C938E931697CE01DF91CF911F910F9112
:1012F0000895FA01AA27283051F1203181F1E894AC
:101300006F936E7F6E5F7F4F8F4F9F4FAF4FB1E0F8
:101310003ED0B4E03CD0670F781F891F9A1FA11DF3
:10132000680F791F8A1F911DA11D6A0F711D811DF4
:10133000911DA11D20D009F468943F912AE0269FB9
:1013400011243019305D3193DEF6CF010895462F18
:101350004770405D4193B3E00FD0C9F7F6CF462FF9
:101360004F70405D4A3318F0495D31FD4052419362
:1013700002D0A9F7EACFB4E0A6959795879577951F
:101380006795BA95C9F700976105710508959B01A6
:10139000AC010A2E06945795479537952795BA952F
:1013A000C9F7620F731F841F951FA01D08952F9208
:1013B0003F924F925F926F927F928F929F92AF92E5
:1013C000BF92CF92DF92EF92FF920F931F93CF9332
:1013D000DF93CDB7DEB7CA1BDB0B0FB6F894DEBFC9
:1013E0000FBECDBF09942A88398848885F846E84EF
:1013F0007D848C849B84AA84B984C884DF80EE8039
:10140000FD800C811B81AA81B981CE0FD11D0FB641
:10141000F894DEBF0FBECDBFED010895F894FFCF65
:101420000000BC002000FFFF0000000200000000E0
:10143000520000000000801400667265715F7365E1
:101440006E6F3A2025640A0D006D663A2025640A05
:041450000D0D00007E
:00000001FF
